{
  "contractName": "Product",
  "abi": [
    {
      "inputs": [],
      "name": "itemCount",
      "outputs": [
        {
          "internalType": "uint256",
          "name": "",
          "type": "uint256"
        }
      ],
      "stateMutability": "view",
      "type": "function",
      "constant": true
    },
    {
      "inputs": [
        {
          "internalType": "uint256",
          "name": "",
          "type": "uint256"
        }
      ],
      "name": "items",
      "outputs": [
        {
          "internalType": "uint256",
          "name": "id",
          "type": "uint256"
        },
        {
          "internalType": "string",
          "name": "name",
          "type": "string"
        },
        {
          "internalType": "uint256",
          "name": "price",
          "type": "uint256"
        }
      ],
      "stateMutability": "view",
      "type": "function",
      "constant": true
    },
    {
      "inputs": [
        {
          "internalType": "string",
          "name": "_name",
          "type": "string"
        },
        {
          "internalType": "uint256",
          "name": "_price",
          "type": "uint256"
        }
      ],
      "name": "addItem",
      "outputs": [],
      "stateMutability": "nonpayable",
      "type": "function"
    }
  ],
  "bytecode": "0x608060405234801561000f575f80fd5b5061082b8061001d5f395ff3fe608060405234801561000f575f80fd5b506004361061003f575f3560e01c806362d6bbdf146100435780636bfb0d011461005f578063bfb231d21461007d575b5f80fd5b61005d60048036038101906100589190610355565b6100af565b005b610067610124565b60405161007491906103be565b60405180910390f35b610097600480360381019061009291906103d7565b61012a565b6040516100a69392919061047c565b60405180910390f35b60015f8154809291906100c1906104e5565b919050555060405180606001604052806001548152602001838152602001828152505f8060015481526020019081526020015f205f820151815f015560208201518160010190816101129190610726565b50604082015181600201559050505050565b60015481565b5f602052805f5260405f205f91509050805f01549080600101805461014e90610559565b80601f016020809104026020016040519081016040528092919081815260200182805461017a90610559565b80156101c55780601f1061019c576101008083540402835291602001916101c5565b820191905f5260205f20905b8154815290600101906020018083116101a857829003601f168201915b5050505050908060020154905083565b5f604051905090565b5f80fd5b5f80fd5b5f80fd5b5f80fd5b5f601f19601f8301169050919050565b7f4e487b71000000000000000000000000000000000000000000000000000000005f52604160045260245ffd5b610234826101ee565b810181811067ffffffffffffffff82111715610253576102526101fe565b5b80604052505050565b5f6102656101d5565b9050610271828261022b565b919050565b5f67ffffffffffffffff8211156102905761028f6101fe565b5b610299826101ee565b9050602081019050919050565b828183375f83830152505050565b5f6102c66102c184610276565b61025c565b9050828152602081018484840111156102e2576102e16101ea565b5b6102ed8482856102a6565b509392505050565b5f82601f830112610309576103086101e6565b5b81356103198482602086016102b4565b91505092915050565b5f819050919050565b61033481610322565b811461033e575f80fd5b50565b5f8135905061034f8161032b565b92915050565b5f806040838503121561036b5761036a6101de565b5b5f83013567ffffffffffffffff811115610388576103876101e2565b5b610394858286016102f5565b92505060206103a585828601610341565b9150509250929050565b6103b881610322565b82525050565b5f6020820190506103d15f8301846103af565b92915050565b5f602082840312156103ec576103eb6101de565b5b5f6103f984828501610341565b91505092915050565b5f81519050919050565b5f82825260208201905092915050565b5f5b8381101561043957808201518184015260208101905061041e565b5f8484015250505050565b5f61044e82610402565b610458818561040c565b935061046881856020860161041c565b610471816101ee565b840191505092915050565b5f60608201905061048f5f8301866103af565b81810360208301526104a18185610444565b90506104b060408301846103af565b949350505050565b7f4e487b71000000000000000000000000000000000000000000000000000000005f52601160045260245ffd5b5f6104ef82610322565b91507fffffffffffffffffffffffffffffffffffffffffffffffffffffffffffffffff8203610521576105206104b8565b5b600182019050919050565b7f4e487b71000000000000000000000000000000000000000000000000000000005f52602260045260245ffd5b5f600282049050600182168061057057607f821691505b6020821081036105835761058261052c565b5b50919050565b5f819050815f5260205f209050919050565b5f6020601f8301049050919050565b5f82821b905092915050565b5f600883026105e57fffffffffffffffffffffffffffffffffffffffffffffffffffffffffffffffff826105aa565b6105ef86836105aa565b95508019841693508086168417925050509392505050565b5f819050919050565b5f61062a61062561062084610322565b610607565b610322565b9050919050565b5f819050919050565b61064383610610565b61065761064f82610631565b8484546105b6565b825550505050565b5f90565b61066b61065f565b61067681848461063a565b505050565b5b818110156106995761068e5f82610663565b60018101905061067c565b5050565b601f8211156106de576106af81610589565b6106b88461059b565b810160208510156106c7578190505b6106db6106d38561059b565b83018261067b565b50505b505050565b5f82821c905092915050565b5f6106fe5f19846008026106e3565b1980831691505092915050565b5f61071683836106ef565b9150826002028217905092915050565b61072f82610402565b67ffffffffffffffff811115610748576107476101fe565b5b6107528254610559565b61075d82828561069d565b5f60209050601f83116001811461078e575f841561077c578287015190505b610786858261070b565b8655506107ed565b601f19841661079c86610589565b5f5b828110156107c35784890151825560018201915060208501945060208101905061079e565b868310156107e057848901516107dc601f8916826106ef565b8355505b6001600288020188555050505b50505050505056fea2646970667358221220978f00c94b52d651473d19d9a8e5164005f9a8e519e9bec39d47ba3e9ebe004764736f6c63430008140033",
  "immutableReferences": {},
  "source": "// SPDX-License-Identifier: MIT\r\npragma solidity ^0.8.20;\r\n\r\ncontract Product {\r\n    struct Item {\r\n        uint id;\r\n        string name;\r\n        uint price;\r\n    }\r\n\r\n    mapping(uint => Item) public items;\r\n    uint public itemCount;\r\n\r\n    function addItem(string memory _name, uint _price) public {\r\n        itemCount++;\r\n        items[itemCount] = Item(itemCount, _name, _price);\r\n    }\r\n}\r\n",
  "sourcePath": "C:\\Users\\B_TECH\\Desktop\\ProductDApp\\contracts\\Product.sol",
  "compiler": {
    "name": "solc",
    "version": "0.8.20+commit.a1b79de6.Emscripten.clang"
  },
  "schemaVersion": "3.4.16",
  "updatedAt": "2025-03-20T16:41:18.948Z",
  "networkType": "ethereum",
  "devdoc": {
    "kind": "dev",
    "methods": {},
    "version": 1
  },
  "userdoc": {
    "kind": "user",
    "methods": {},
    "version": 1
  }
}